:020000040000FA
:02000000A12934
:040002000034003492
:02000800982935
:06000A0083168601F130AF
:100010008500831285108511080005158316FF30B1
:100020008600831285150000861B1428851183160F
:1000300086018312051108008515000085110E3018
:10004000A000A00B21280800851086000D20851433
:100050001C28851086000D201C28383029203920C6
:100060003830292039203830292039200130292002
:10007000080064000730A000A101A10B3D28A00BDF
:100080003D2808000310A7012716A601A501A40119
:10009000A20DA30DA40DA50DA60DA70B50280800B9
:1000A000243084005820840A5820840A5820482884
:1000B0000008033EA800A81980000008303EA800F0
:1000C000A81B800008002030C900C401C501C6017A
:1000D000C701C801443084000530D00033308007A8
:1000E0008019F039801B0F398002840AD00B6E28EA
:1000F000B40DB50DB60DB70DC40DC50DC60DC70DAC
:08010000C80DC90B6A280800B4
:08010800831280302920470E0C
:100110000F39303824202E30242047080F3930384A
:100120002420460E0F393038242046080F39303845
:1001300024202030242056302420080083128030D0
:1001400029200530A70048308400000E0F393038D0
:10015000242000080F39303824208403A70BA52859
:1001600008008312803029200330A7002630840045
:10017000000E0F393038242000080F393038242081
:100180008403A70BB8280800831603138E309F0042
:100190000C17831241309F0008008312EB3081005E
:1001A0000B118B168B170800031083128716033070
:1001B000A305A30CA20CA30CA20C22089B000716FB
:1001C000A30CA30CA30C23089D0487150800831619
:1001D0000C17831260308B000C131F1508000C13D2
:1001E0001F19CD28831603131E088312A200B20024
:1001F0001E08A300B300BE30B100BC30B000B60191
:10020000B401031030083218B607B60CB40CB2189B
:10021000B607B60CB40C3219B607B60CB40CB2194A
:10022000B607B60CB40C321AB607B60CB40CB21A38
:10023000B607B60CB40C321BB607B60CB40CB21B26
:10024000B607B60CB40CB7013318B607B60CB70C2A
:10025000B318B607B60CB70C3319B607B60CB70C03
:10026000B319B607B60CB70C331AB607B60CB70CF1
:10027000B31AB607B60CB70C331BB607B60CB70CDF
:10028000B31BB607B60CB70CB50131083218B70767
:10029000B70CB50CB218B707B70CB50C3219B707C5
:1002A000B70CB50CB219B707B70CB50C321AB707B3
:1002B000B70CB50CB21AB707B70CB50C321BB707A1
:1002C000B70CB50CB21BB707B70CB50CB901331896
:1002D000B707B70CB90CB318B707B70CB90C33197B
:1002E000B707B70CB90CB319B707B70CB90C331A69
:1002F000B707B70CB90CB31AB707B70CB90C331B57
:10030000B707B70CB90CB31BB707B70CB90C390852
:10031000B6070318B70A63208420831603131E0848
:100320008312A2001E08A3008717D4200717080015
:10033000831203130B19E7200C1BEF201F1DCD2088
:1003400009008501860187019D019B0191018316AA
:1003500003138E309F0081120130850086018701D2
:100360007E089200C42083120C309D0006301215C6
:1003700005202D200C302920CD2064000000000035
:040380000000BD2993
:02400E00793FF8
:00000001FF
